{"abi":[{"type":"receive","stateMutability":"payable"},{"type":"function","name":"authorizeSessionKey","inputs":[{"name":"_key","type":"address","internalType":"address"},{"name":"_expiry","type":"uint256","internalType":"uint256"},{"name":"_canBridge","type":"bool","internalType":"bool"},{"name":"_canExecute","type":"bool","internalType":"bool"},{"name":"_spendLimit","type":"uint256","internalType":"uint256"}],"outputs":[],"stateMutability":"nonpayable"},{"type":"function","name":"bridgeERC20","inputs":[{"name":"token","type":"address","internalType":"address"},{"name":"amount","type":"uint256","internalType":"uint256"},{"name":"destinationChainId","type":"uint256","internalType":"uint256"}],"outputs":[],"stateMutability":"nonpayable"},{"type":"function","name":"crossChainExecute","inputs":[{"name":"destinationChainId","type":"uint256","internalType":"uint256"},{"name":"target","type":"address","internalType":"address"},{"name":"data","type":"bytes","internalType":"bytes"}],"outputs":[],"stateMutability":"nonpayable"},{"type":"function","name":"execute","inputs":[{"name":"target","type":"address","internalType":"address"},{"name":"value","type":"uint256","internalType":"uint256"},{"name":"data","type":"bytes","internalType":"bytes"}],"outputs":[{"name":"","type":"bytes","internalType":"bytes"}],"stateMutability":"nonpayable"},{"type":"function","name":"executeBatch","inputs":[{"name":"targets","type":"address[]","internalType":"address[]"},{"name":"values","type":"uint256[]","internalType":"uint256[]"},{"name":"datas","type":"bytes[]","internalType":"bytes[]"}],"outputs":[{"name":"","type":"bytes[]","internalType":"bytes[]"}],"stateMutability":"nonpayable"},{"type":"function","name":"executeCrossChainCall","inputs":[{"name":"target","type":"address","internalType":"address"},{"name":"data","type":"bytes","internalType":"bytes"}],"outputs":[],"stateMutability":"nonpayable"},{"type":"function","name":"sessionKeys","inputs":[{"name":"","type":"address","internalType":"address"}],"outputs":[{"name":"expiry","type":"uint256","internalType":"uint256"},{"name":"canBridge","type":"bool","internalType":"bool"},{"name":"canExecute","type":"bool","internalType":"bool"},{"name":"spendLimit","type":"uint256","internalType":"uint256"},{"name":"spent","type":"uint256","internalType":"uint256"}],"stateMutability":"view"},{"type":"event","name":"CrossChainCallInitiated","inputs":[{"name":"destinationChain","type":"uint256","indexed":true,"internalType":"uint256"},{"name":"target","type":"address","indexed":false,"internalType":"address"},{"name":"data","type":"bytes","indexed":false,"internalType":"bytes"}],"anonymous":false},{"type":"event","name":"SessionKeyAuthorized","inputs":[{"name":"key","type":"address","indexed":true,"internalType":"address"},{"name":"expiry","type":"uint256","indexed":false,"internalType":"uint256"},{"name":"spendLimit","type":"uint256","indexed":false,"internalType":"uint256"}],"anonymous":false}],"bytecode":{"object":"0x6080604052348015600e575f5ffd5b50611f878061001c5f395ff3fe608060405260043610610073575f3560e01c80639af532591161004d5780639af532591461010a578063b58aa5c214610132578063b61d27f61461015a578063b7b8d604146101965761007a565b80630a3d02111461007e57806347e1da2a146100a65780637c751ca0146100e25761007a565b3661007a57005b5f5ffd5b348015610089575f5ffd5b506100a4600480360381019061009f919061119f565b6101d6565b005b3480156100b1575f5ffd5b506100cc60048036038101906100c791906112fa565b6106c8565b6040516100d991906114d5565b60405180910390f35b3480156100ed575f5ffd5b506101086004803603810190610103919061154a565b6109e0565b005b348015610115575f5ffd5b50610130600480360381019061012b91906115bb565b610c3c565b005b34801561013d575f5ffd5b506101586004803603810190610153919061164d565b610d6e565b005b348015610165575f5ffd5b50610180600480360381019061017b91906116c4565b610ef8565b60405161018d919061177d565b60405180910390f35b3480156101a1575f5ffd5b506101bc60048036038101906101b7919061179d565b6110c0565b6040516101cd9594939291906117e6565b60405180910390f35b3073ffffffffffffffffffffffffffffffffffffffff163373ffffffffffffffffffffffffffffffffffffffff1614806102a25750425f5f3373ffffffffffffffffffffffffffffffffffffffff1673ffffffffffffffffffffffffffffffffffffffff1681526020019081526020015f205f01541180156102a157505f5f3373ffffffffffffffffffffffffffffffffffffffff1673ffffffffffffffffffffffffffffffffffffffff1681526020019081526020015f2060010160019054906101000a900460ff165b5b6102e1576040517f08c379a00000000000000000000000000000000000000000000000000000000081526004016102d890611891565b60405180910390fd5b3073ffffffffffffffffffffffffffffffffffffffff163373ffffffffffffffffffffffffffffffffffffffff16148061036357505f5f3373ffffffffffffffffffffffffffffffffffffffff1673ffffffffffffffffffffffffffffffffffffffff1681526020019081526020015f206001015f9054906101000a900460ff165b6103a2576040517f08c379a0000000000000000000000000000000000000000000000000000000008152600401610399906118f9565b60405180910390fd5b3073ffffffffffffffffffffffffffffffffffffffff163373ffffffffffffffffffffffffffffffffffffffff16146104f7575f5f3373ffffffffffffffffffffffffffffffffffffffff1673ffffffffffffffffffffffffffffffffffffffff1681526020019081526020015f2060020154825f5f3373ffffffffffffffffffffffffffffffffffffffff1673ffffffffffffffffffffffffffffffffffffffff1681526020019081526020015f20600301546104609190611944565b11156104a1576040517f08c379a0000000000000000000000000000000000000000000000000000000008152600401610498906119c1565b60405180910390fd5b815f5f3373ffffffffffffffffffffffffffffffffffffffff1673ffffffffffffffffffffffffffffffffffffffff1681526020019081526020015f206003015f8282546104ef9190611944565b925050819055505b5f8373ffffffffffffffffffffffffffffffffffffffff16734200000000000000000000000000000000000028846040516024016105369291906119ee565b6040516020818303038152906040527f095ea7b3000000000000000000000000000000000000000000000000000000007bffffffffffffffffffffffffffffffffffffffffffffffffffffffff19166020820180517bffffffffffffffffffffffffffffffffffffffffffffffffffffffff83818316178352505050506040516105c09190611a4f565b5f604051808303815f865af19150503d805f81146105f9576040519150601f19603f3d011682016040523d82523d5f602084013e6105fe565b606091505b5050905080610642576040517f08c379a000000000000000000000000000000000000000000000000000000000815260040161063990611aaf565b60405180910390fd5b73420000000000000000000000000000000000002873ffffffffffffffffffffffffffffffffffffffff1663c1a433d8853086866040518563ffffffff1660e01b81526004016106959493929190611acd565b5f604051808303815f87803b1580156106ac575f5ffd5b505af11580156106be573d5f5f3e3d5ffd5b5050505050505050565b60603073ffffffffffffffffffffffffffffffffffffffff163373ffffffffffffffffffffffffffffffffffffffff1614806107965750425f5f3373ffffffffffffffffffffffffffffffffffffffff1673ffffffffffffffffffffffffffffffffffffffff1681526020019081526020015f205f015411801561079557505f5f3373ffffffffffffffffffffffffffffffffffffffff1673ffffffffffffffffffffffffffffffffffffffff1681526020019081526020015f2060010160019054906101000a900460ff165b5b6107d5576040517f08c379a00000000000000000000000000000000000000000000000000000000081526004016107cc90611891565b60405180910390fd5b84849050878790501480156107ef57508282905085859050145b61082e576040517f08c379a000000000000000000000000000000000000000000000000000000000815260040161082590611b5a565b60405180910390fd5b5f8787905067ffffffffffffffff81111561084c5761084b611b78565b5b60405190808252806020026020018201604052801561087f57816020015b606081526020019060019003908161086a5790505b5090505f5f90505b888890508110156109d1575f5f8a8a848181106108a7576108a6611ba5565b5b90506020020160208101906108bc919061179d565b73ffffffffffffffffffffffffffffffffffffffff168989858181106108e5576108e4611ba5565b5b905060200201358888868181106108ff576108fe611ba5565b5b90506020028101906109119190611bde565b60405161091f929190611c72565b5f6040518083038185875af1925050503d805f8114610959576040519150601f19603f3d011682016040523d82523d5f602084013e61095e565b606091505b5091509150816109a3576040517f08c379a000000000000000000000000000000000000000000000000000000000815260040161099a90611cd4565b60405180910390fd5b808484815181106109b7576109b6611ba5565b5b602002602001018190525050508080600101915050610887565b50809150509695505050505050565b3073ffffffffffffffffffffffffffffffffffffffff163373ffffffffffffffffffffffffffffffffffffffff161480610aac5750425f5f3373ffffffffffffffffffffffffffffffffffffffff1673ffffffffffffffffffffffffffffffffffffffff1681526020019081526020015f205f0154118015610aab57505f5f3373ffffffffffffffffffffffffffffffffffffffff1673ffffffffffffffffffffffffffffffffffffffff1681526020019081526020015f2060010160019054906101000a900460ff165b5b610aeb576040517f08c379a0000000000000000000000000000000000000000000000000000000008152600401610ae290611891565b60405180910390fd5b73420000000000000000000000000000000000002373ffffffffffffffffffffffffffffffffffffffff16637056f41f8530868686604051602401610b3293929190611d1e565b6040516020818303038152906040527f9af53259000000000000000000000000000000000000000000000000000000007bffffffffffffffffffffffffffffffffffffffffffffffffffffffff19166020820180517bffffffffffffffffffffffffffffffffffffffffffffffffffffffff83818316178352505050506040518463ffffffff1660e01b8152600401610bcd93929190611d4e565b5f604051808303815f87803b158015610be4575f5ffd5b505af1158015610bf6573d5f5f3e3d5ffd5b50505050837fed34dc404ec24711170e8f42a7162cb00862605e48b68b0bf6269ab18e2d0572848484604051610c2e93929190611d1e565b60405180910390a250505050565b73420000000000000000000000000000000000002373ffffffffffffffffffffffffffffffffffffffff163373ffffffffffffffffffffffffffffffffffffffff1614610cbe576040517f08c379a0000000000000000000000000000000000000000000000000000000008152600401610cb590611dd4565b60405180910390fd5b5f8373ffffffffffffffffffffffffffffffffffffffff168383604051610ce6929190611c72565b5f604051808303815f865af19150503d805f8114610d1f576040519150601f19603f3d011682016040523d82523d5f602084013e610d24565b606091505b5050905080610d68576040517f08c379a0000000000000000000000000000000000000000000000000000000008152600401610d5f90611e3c565b60405180910390fd5b50505050565b3073ffffffffffffffffffffffffffffffffffffffff163373ffffffffffffffffffffffffffffffffffffffff1614610ddc576040517f08c379a0000000000000000000000000000000000000000000000000000000008152600401610dd390611ea4565b60405180910390fd5b6040518060a00160405280858152602001841515815260200183151581526020018281526020015f8152505f5f8773ffffffffffffffffffffffffffffffffffffffff1673ffffffffffffffffffffffffffffffffffffffff1681526020019081526020015f205f820151815f01556020820151816001015f6101000a81548160ff02191690831515021790555060408201518160010160016101000a81548160ff02191690831515021790555060608201518160020155608082015181600301559050508473ffffffffffffffffffffffffffffffffffffffff167fbf588e83d6242fb6bc9c10669b519f5b619ec35fadd0190393de6a6f19e7cb118583604051610ee9929190611ec2565b60405180910390a25050505050565b60603073ffffffffffffffffffffffffffffffffffffffff163373ffffffffffffffffffffffffffffffffffffffff161480610fc65750425f5f3373ffffffffffffffffffffffffffffffffffffffff1673ffffffffffffffffffffffffffffffffffffffff1681526020019081526020015f205f0154118015610fc557505f5f3373ffffffffffffffffffffffffffffffffffffffff1673ffffffffffffffffffffffffffffffffffffffff1681526020019081526020015f2060010160019054906101000a900460ff165b5b611005576040517f08c379a0000000000000000000000000000000000000000000000000000000008152600401610ffc90611891565b60405180910390fd5b5f5f8673ffffffffffffffffffffffffffffffffffffffff1686868660405161102f929190611c72565b5f6040518083038185875af1925050503d805f8114611069576040519150601f19603f3d011682016040523d82523d5f602084013e61106e565b606091505b5091509150816110b3576040517f08c379a00000000000000000000000000000000000000000000000000000000081526004016110aa90611f33565b60405180910390fd5b8092505050949350505050565b5f602052805f5260405f205f91509050805f015490806001015f9054906101000a900460ff16908060010160019054906101000a900460ff16908060020154908060030154905085565b5f5ffd5b5f5ffd5b5f73ffffffffffffffffffffffffffffffffffffffff82169050919050565b5f61113b82611112565b9050919050565b61114b81611131565b8114611155575f5ffd5b50565b5f8135905061116681611142565b92915050565b5f819050919050565b61117e8161116c565b8114611188575f5ffd5b50565b5f8135905061119981611175565b92915050565b5f5f5f606084860312156111b6576111b561110a565b5b5f6111c386828701611158565b93505060206111d48682870161118b565b92505060406111e58682870161118b565b9150509250925092565b5f5ffd5b5f5ffd5b5f5ffd5b5f5f83601f8401126112105761120f6111ef565b5b8235905067ffffffffffffffff81111561122d5761122c6111f3565b5b602083019150836020820283011115611249576112486111f7565b5b9250929050565b5f5f83601f840112611265576112646111ef565b5b8235905067ffffffffffffffff811115611282576112816111f3565b5b60208301915083602082028301111561129e5761129d6111f7565b5b9250929050565b5f5f83601f8401126112ba576112b96111ef565b5b8235905067ffffffffffffffff8111156112d7576112d66111f3565b5b6020830191508360208202830111156112f3576112f26111f7565b5b9250929050565b5f5f5f5f5f5f606087890312156113145761131361110a565b5b5f87013567ffffffffffffffff8111156113315761133061110e565b5b61133d89828a016111fb565b9650965050602087013567ffffffffffffffff8111156113605761135f61110e565b5b61136c89828a01611250565b9450945050604087013567ffffffffffffffff81111561138f5761138e61110e565b5b61139b89828a016112a5565b92509250509295509295509295565b5f81519050919050565b5f82825260208201905092915050565b5f819050602082019050919050565b5f81519050919050565b5f82825260208201905092915050565b8281835e5f83830152505050565b5f601f19601f8301169050919050565b5f611415826113d3565b61141f81856113dd565b935061142f8185602086016113ed565b611438816113fb565b840191505092915050565b5f61144e838361140b565b905092915050565b5f602082019050919050565b5f61146c826113aa565b61147681856113b4565b935083602082028501611488856113c4565b805f5b858110156114c357848403895281516114a48582611443565b94506114af83611456565b925060208a0199505060018101905061148b565b50829750879550505050505092915050565b5f6020820190508181035f8301526114ed8184611462565b905092915050565b5f5f83601f84011261150a576115096111ef565b5b8235905067ffffffffffffffff811115611527576115266111f3565b5b602083019150836001820283011115611543576115426111f7565b5b9250929050565b5f5f5f5f606085870312156115625761156161110a565b5b5f61156f8782880161118b565b945050602061158087828801611158565b935050604085013567ffffffffffffffff8111156115a1576115a061110e565b5b6115ad878288016114f5565b925092505092959194509250565b5f5f5f604084860312156115d2576115d161110a565b5b5f6115df86828701611158565b935050602084013567ffffffffffffffff811115611600576115ff61110e565b5b61160c868287016114f5565b92509250509250925092565b5f8115159050919050565b61162c81611618565b8114611636575f5ffd5b50565b5f8135905061164781611623565b92915050565b5f5f5f5f5f60a086880312156116665761166561110a565b5b5f61167388828901611158565b95505060206116848882890161118b565b945050604061169588828901611639565b93505060606116a688828901611639565b92505060806116b78882890161118b565b9150509295509295909350565b5f5f5f5f606085870312156116dc576116db61110a565b5b5f6116e987828801611158565b94505060206116fa8782880161118b565b935050604085013567ffffffffffffffff81111561171b5761171a61110e565b5b611727878288016114f5565b925092505092959194509250565b5f82825260208201905092915050565b5f61174f826113d3565b6117598185611735565b93506117698185602086016113ed565b611772816113fb565b840191505092915050565b5f6020820190508181035f8301526117958184611745565b905092915050565b5f602082840312156117b2576117b161110a565b5b5f6117bf84828501611158565b91505092915050565b6117d18161116c565b82525050565b6117e081611618565b82525050565b5f60a0820190506117f95f8301886117c8565b61180660208301876117d7565b61181360408301866117d7565b61182060608301856117c8565b61182d60808301846117c8565b9695505050505050565b5f82825260208201905092915050565b7f556e617574686f72697a656400000000000000000000000000000000000000005f82015250565b5f61187b600c83611837565b915061188682611847565b602082019050919050565b5f6020820190508181035f8301526118a88161186f565b9050919050565b7f4e6f7420617574686f72697a656420746f2062726964676500000000000000005f82015250565b5f6118e3601883611837565b91506118ee826118af565b602082019050919050565b5f6020820190508181035f830152611910816118d7565b9050919050565b7f4e487b71000000000000000000000000000000000000000000000000000000005f52601160045260245ffd5b5f61194e8261116c565b91506119598361116c565b925082820190508082111561197157611970611917565b5b92915050565b7f5370656e64206c696d69742065786365656465640000000000000000000000005f82015250565b5f6119ab601483611837565b91506119b682611977565b602082019050919050565b5f6020820190508181035f8301526119d88161199f565b9050919050565b6119e881611131565b82525050565b5f604082019050611a015f8301856119df565b611a0e60208301846117c8565b9392505050565b5f81905092915050565b5f611a29826113d3565b611a338185611a15565b9350611a438185602086016113ed565b80840191505092915050565b5f611a5a8284611a1f565b915081905092915050565b7f417070726f76616c206661696c656400000000000000000000000000000000005f82015250565b5f611a99600f83611837565b9150611aa482611a65565b602082019050919050565b5f6020820190508181035f830152611ac681611a8d565b9050919050565b5f608082019050611ae05f8301876119df565b611aed60208301866119df565b611afa60408301856117c8565b611b0760608301846117c8565b95945050505050565b7f4c656e677468206d69736d6174636800000000000000000000000000000000005f82015250565b5f611b44600f83611837565b9150611b4f82611b10565b602082019050919050565b5f6020820190508181035f830152611b7181611b38565b9050919050565b7f4e487b71000000000000000000000000000000000000000000000000000000005f52604160045260245ffd5b7f4e487b71000000000000000000000000000000000000000000000000000000005f52603260045260245ffd5b5f5ffd5b5f5ffd5b5f5ffd5b5f5f83356001602003843603038112611bfa57611bf9611bd2565b5b80840192508235915067ffffffffffffffff821115611c1c57611c1b611bd6565b5b602083019250600182023603831315611c3857611c37611bda565b5b509250929050565b828183375f83830152505050565b5f611c598385611a15565b9350611c66838584611c40565b82840190509392505050565b5f611c7e828486611c4e565b91508190509392505050565b7f426174636820657865637574696f6e206661696c6564000000000000000000005f82015250565b5f611cbe601683611837565b9150611cc982611c8a565b602082019050919050565b5f6020820190508181035f830152611ceb81611cb2565b9050919050565b5f611cfd8385611735565b9350611d0a838584611c40565b611d13836113fb565b840190509392505050565b5f604082019050611d315f8301866119df565b8181036020830152611d44818486611cf2565b9050949350505050565b5f606082019050611d615f8301866117c8565b611d6e60208301856119df565b8181036040830152611d808184611745565b9050949350505050565b7f496e76616c69642073656e6465720000000000000000000000000000000000005f82015250565b5f611dbe600e83611837565b9150611dc982611d8a565b602082019050919050565b5f6020820190508181035f830152611deb81611db2565b9050919050565b7f43726f73732d636861696e20657865637574696f6e206661696c6564000000005f82015250565b5f611e26601c83611837565b9150611e3182611df2565b602082019050919050565b5f6020820190508181035f830152611e5381611e1a565b9050919050565b7f4f6e6c79206f776e6572000000000000000000000000000000000000000000005f82015250565b5f611e8e600a83611837565b9150611e9982611e5a565b602082019050919050565b5f6020820190508181035f830152611ebb81611e82565b9050919050565b5f604082019050611ed55f8301856117c8565b611ee260208301846117c8565b9392505050565b7f457865637574696f6e206661696c6564000000000000000000000000000000005f82015250565b5f611f1d601083611837565b9150611f2882611ee9565b602082019050919050565b5f6020820190508181035f830152611f4a81611f11565b905091905056fea2646970667358221220903c7b754805a732ae1196a43bd2f0b7e6a45be66c3c5dc08be2b36a323966e364736f6c634300081b0033","linkReferences":{}},"methodIdentifiers":{"authorizeSessionKey(address,uint256,bool,bool,uint256)":"b58aa5c2","bridgeERC20(address,uint256,uint256)":"0a3d0211","crossChainExecute(uint256,address,bytes)":"7c751ca0","execute(address,uint256,bytes)":"b61d27f6","executeBatch(address[],uint256[],bytes[])":"47e1da2a","executeCrossChainCall(address,bytes)":"9af53259","sessionKeys(address)":"b7b8d604"},"id":0}